{
  "_format": "hh-sol-artifact-1",
  "contractName": "BattleGame",
  "sourceName": "contracts/BattleGame.sol",
  "abi": [
    {
      "anonymous": false,
      "inputs": [
        {
          "indexed": true,
          "internalType": "address",
          "name": "challenger",
          "type": "address"
        },
        {
          "indexed": true,
          "internalType": "address",
          "name": "opponent",
          "type": "address"
        },
        {
          "indexed": false,
          "internalType": "string",
          "name": "outcome",
          "type": "string"
        }
      ],
      "name": "BattleResult",
      "type": "event"
    },
    {
      "anonymous": false,
      "inputs": [
        {
          "indexed": true,
          "internalType": "address",
          "name": "winner",
          "type": "address"
        },
        {
          "indexed": false,
          "internalType": "uint256",
          "name": "rewardAmount",
          "type": "uint256"
        }
      ],
      "name": "NFTReward",
      "type": "event"
    },
    {
      "inputs": [
        {
          "internalType": "address",
          "name": "opponent",
          "type": "address"
        }
      ],
      "name": "battle",
      "outputs": [
        {
          "internalType": "bool",
          "name": "",
          "type": "bool"
        }
      ],
      "stateMutability": "nonpayable",
      "type": "function"
    },
    {
      "inputs": [
        {
          "internalType": "address",
          "name": "opponent",
          "type": "address"
        }
      ],
      "name": "challengeBattle",
      "outputs": [
        {
          "internalType": "bool",
          "name": "",
          "type": "bool"
        }
      ],
      "stateMutability": "nonpayable",
      "type": "function"
    }
  ],
  "bytecode": "0x6080604052348015600f57600080fd5b506105418061001f6000396000f3fe608060405234801561001057600080fd5b50600436106100365760003560e01c80634b09c4821461003b57806371c952811461006b575b600080fd5b610055600480360381019061005091906102bc565b61009b565b6040516100629190610304565b60405180910390f35b610085600480360381019061008091906102bc565b6100b2565b6040516100929190610304565b60405180910390f35b6000806100a7836100b2565b905080915050919050565b6000806100bd6101c6565b905060606032821015610112576040518060400160405280601081526020017f4368616c6c656e6765722057696e732100000000000000000000000000000000815250905061010d336003610207565b610156565b6040518060400160405280600e81526020017f4f70706f6e656e742057696e73210000000000000000000000000000000000008152509050610155846003610207565b5b8373ffffffffffffffffffffffffffffffffffffffff163373ffffffffffffffffffffffffffffffffffffffff167f0d016580042b2c57eabd4e2568424684ea01709977c2d4f0cee5497a750e95ef836040516101b391906103af565b60405180910390a3600192505050919050565b600060644244336040516020016101df93929190610444565b6040516020818303038152906040528051906020012060001c61020291906104b0565b905090565b8173ffffffffffffffffffffffffffffffffffffffff167f1ab20ccdb27bda5a8d5d5f45090eeebbb516332bc8b84cf01d32cbc8a0daf29a8260405161024d91906104f0565b60405180910390a25050565b600080fd5b600073ffffffffffffffffffffffffffffffffffffffff82169050919050565b60006102898261025e565b9050919050565b6102998161027e565b81146102a457600080fd5b50565b6000813590506102b681610290565b92915050565b6000602082840312156102d2576102d1610259565b5b60006102e0848285016102a7565b91505092915050565b60008115159050919050565b6102fe816102e9565b82525050565b600060208201905061031960008301846102f5565b92915050565b600081519050919050565b600082825260208201905092915050565b60005b8381101561035957808201518184015260208101905061033e565b60008484015250505050565b6000601f19601f8301169050919050565b60006103818261031f565b61038b818561032a565b935061039b81856020860161033b565b6103a481610365565b840191505092915050565b600060208201905081810360008301526103c98184610376565b905092915050565b6000819050919050565b6000819050919050565b6103f66103f1826103d1565b6103db565b82525050565b60008160601b9050919050565b6000610414826103fc565b9050919050565b600061042682610409565b9050919050565b61043e6104398261027e565b61041b565b82525050565b600061045082866103e5565b60208201915061046082856103e5565b602082019150610470828461042d565b601482019150819050949350505050565b7f4e487b7100000000000000000000000000000000000000000000000000000000600052601260045260246000fd5b60006104bb826103d1565b91506104c6836103d1565b9250826104d6576104d5610481565b5b828206905092915050565b6104ea816103d1565b82525050565b600060208201905061050560008301846104e1565b9291505056fea2646970667358221220ab9274a7a29f8773f50022b3551874fbeddfaf3f0878b43a2677e4322197204364736f6c634300081c0033",
  "linkReferences": {},
  "deployedLinkReferences": {}
}